{
  "contractName": "Authority",
  "abi": [
    {
      "inputs": [],
      "payable": false,
      "stateMutability": "nonpayable",
      "type": "constructor"
    },
    {
      "constant": false,
      "inputs": [
        {
          "internalType": "string",
          "name": "dname",
          "type": "string"
        },
        {
          "internalType": "enum Device.DeviceType",
          "name": "dtype",
          "type": "uint8"
        }
      ],
      "name": "addDevice",
      "outputs": [],
      "payable": false,
      "stateMutability": "nonpayable",
      "type": "function"
    },
    {
      "constant": false,
      "inputs": [
        {
          "internalType": "address",
          "name": "newOwner",
          "type": "address"
        }
      ],
      "name": "addUser",
      "outputs": [],
      "payable": false,
      "stateMutability": "nonpayable",
      "type": "function"
    },
    {
      "constant": true,
      "inputs": [],
      "name": "testAuth",
      "outputs": [
        {
          "internalType": "string",
          "name": "",
          "type": "string"
        }
      ],
      "payable": false,
      "stateMutability": "view",
      "type": "function"
    },
    {
      "constant": true,
      "inputs": [
        {
          "internalType": "string",
          "name": "dname",
          "type": "string"
        }
      ],
      "name": "deviceTypeCheck",
      "outputs": [
        {
          "internalType": "enum Device.DeviceType",
          "name": "",
          "type": "uint8"
        }
      ],
      "payable": false,
      "stateMutability": "view",
      "type": "function"
    },
    {
      "constant": false,
      "inputs": [
        {
          "internalType": "string",
          "name": "dname",
          "type": "string"
        }
      ],
      "name": "lockDoors",
      "outputs": [],
      "payable": false,
      "stateMutability": "nonpayable",
      "type": "function"
    },
    {
      "constant": false,
      "inputs": [
        {
          "internalType": "string",
          "name": "dname",
          "type": "string"
        }
      ],
      "name": "unlockDoors",
      "outputs": [],
      "payable": false,
      "stateMutability": "nonpayable",
      "type": "function"
    },
    {
      "constant": true,
      "inputs": [
        {
          "internalType": "string",
          "name": "dname",
          "type": "string"
        }
      ],
      "name": "doorState",
      "outputs": [
        {
          "internalType": "bool",
          "name": "",
          "type": "bool"
        }
      ],
      "payable": false,
      "stateMutability": "view",
      "type": "function"
    },
    {
      "constant": false,
      "inputs": [
        {
          "internalType": "string",
          "name": "dname",
          "type": "string"
        }
      ],
      "name": "turnOnLights",
      "outputs": [],
      "payable": false,
      "stateMutability": "nonpayable",
      "type": "function"
    },
    {
      "constant": false,
      "inputs": [
        {
          "internalType": "string",
          "name": "dname",
          "type": "string"
        }
      ],
      "name": "turnOffLights",
      "outputs": [],
      "payable": false,
      "stateMutability": "nonpayable",
      "type": "function"
    },
    {
      "constant": true,
      "inputs": [
        {
          "internalType": "string",
          "name": "dname",
          "type": "string"
        }
      ],
      "name": "lightState",
      "outputs": [
        {
          "internalType": "bool",
          "name": "",
          "type": "bool"
        }
      ],
      "payable": false,
      "stateMutability": "view",
      "type": "function"
    },
    {
      "constant": false,
      "inputs": [
        {
          "internalType": "string",
          "name": "dname",
          "type": "string"
        },
        {
          "internalType": "uint256",
          "name": "x",
          "type": "uint256"
        }
      ],
      "name": "setTemperature",
      "outputs": [],
      "payable": false,
      "stateMutability": "nonpayable",
      "type": "function"
    },
    {
      "constant": true,
      "inputs": [
        {
          "internalType": "string",
          "name": "dname",
          "type": "string"
        }
      ],
      "name": "thermoState",
      "outputs": [
        {
          "internalType": "uint256",
          "name": "",
          "type": "uint256"
        }
      ],
      "payable": false,
      "stateMutability": "view",
      "type": "function"
    }
  ],
  "bytecode": "0x608060405234801561001057600080fd5b50336000806101000a81548173ffffffffffffffffffffffffffffffffffffffff021916908373ffffffffffffffffffffffffffffffffffffffff16021790555060405180608001604052803373ffffffffffffffffffffffffffffffffffffffff1681526020016000600381111561008557fe5b815260200160011515815260200160011515815250600160003373ffffffffffffffffffffffffffffffffffffffff1673ffffffffffffffffffffffffffffffffffffffff16815260200190815260200160002060008201518160000160006101000a81548173ffffffffffffffffffffffffffffffffffffffff021916908373ffffffffffffffffffffffffffffffffffffffff16021790555060208201518160000160146101000a81548160ff0219169083600381111561014457fe5b021790555060408201518160000160156101000a81548160ff02191690831515021790555060608201518160000160166101000a81548160ff0219169083151502179055509050506156b3806200019c6000396000f3fe608060405234801561001057600080fd5b50600436106100b45760003560e01c806362e3152a1161007157806362e3152a1461049857806367991f041461056b578063cf3ac1d614610626578063d47835bf146106e1578063d48a9f15146107a9578063e3a696b31461087c576100b4565b80631584249d146100b95780632f0b47551461013c57806340ff3330146101f7578063421b2d8b146102bc578063437cf006146103005780635c9fdd78146103bb575b600080fd5b6100c161094b565b6040518080602001828103825283818151815260200191508051906020019080838360005b838110156101015780820151818401526020810190506100e6565b50505050905090810190601f16801561012e5780820380516001836020036101000a031916815260200191505b509250505060405180910390f35b6101f56004803603602081101561015257600080fd5b810190808035906020019064010000000081111561016f57600080fd5b82018360208201111561018157600080fd5b803590602001918460018302840111640100000000831117156101a357600080fd5b91908080601f016020809104026020016040519081016040528093929190818152602001838380828437600081840152601f19601f820116905080830192505050505050509192919290505050610be9565b005b6102ba6004803603604081101561020d57600080fd5b810190808035906020019064010000000081111561022a57600080fd5b82018360208201111561023c57600080fd5b8035906020019184600183028401116401000000008311171561025e57600080fd5b91908080601f016020809104026020016040519081016040528093929190818152602001838380828437600081840152601f19601f82011690508083019250505050505050919291929080359060200190929190505050610f70565b005b6102fe600480360360208110156102d257600080fd5b81019080803573ffffffffffffffffffffffffffffffffffffffff169060200190929190505050611303565b005b6103b96004803603602081101561031657600080fd5b810190808035906020019064010000000081111561033357600080fd5b82018360208201111561034557600080fd5b8035906020019184600183028401116401000000008311171561036757600080fd5b91908080601f016020809104026020016040519081016040528093929190818152602001838380828437600081840152601f19601f8201169050808301925050505050505091929192905050506115b8565b005b610474600480360360208110156103d157600080fd5b81019080803590602001906401000000008111156103ee57600080fd5b82018360208201111561040057600080fd5b8035906020019184600183028401116401000000008311171561042257600080fd5b91908080601f016020809104026020016040519081016040528093929190818152602001838380828437600081840152601f19601f82011690508083019250505050505050919291929050505061193f565b6040518082600281111561048457fe5b60ff16815260200191505060405180910390f35b610551600480360360208110156104ae57600080fd5b81019080803590602001906401000000008111156104cb57600080fd5b8201836020820111156104dd57600080fd5b803590602001918460018302840111640100000000831117156104ff57600080fd5b91908080601f016020809104026020016040519081016040528093929190818152602001838380828437600081840152601f19601f820116905080830192505050505050509192919290505050611b06565b604051808215151515815260200191505060405180910390f35b6106246004803603602081101561058157600080fd5b810190808035906020019064010000000081111561059e57600080fd5b8201836020820111156105b057600080fd5b803590602001918460018302840111640100000000831117156105d257600080fd5b91908080601f016020809104026020016040519081016040528093929190818152602001838380828437600081840152601f19601f820116905080830192505050505050509192919290505050611e44565b005b6106df6004803603602081101561063c57600080fd5b810190808035906020019064010000000081111561065957600080fd5b82018360208201111561066b57600080fd5b8035906020019184600183028401116401000000008311171561068d57600080fd5b91908080601f016020809104026020016040519081016040528093929190818152602001838380828437600081840152601f19601f8201169050808301925050505050505091929192905050506121cb565b005b6107a7600480360360408110156106f757600080fd5b810190808035906020019064010000000081111561071457600080fd5b82018360208201111561072657600080fd5b8035906020019184600183028401116401000000008311171561074857600080fd5b91908080601f016020809104026020016040519081016040528093929190818152602001838380828437600081840152601f19601f820116905080830192505050505050509192919290803560ff169060200190929190505050612552565b005b610862600480360360208110156107bf57600080fd5b81019080803590602001906401000000008111156107dc57600080fd5b8201836020820111156107ee57600080fd5b8035906020019184600183028401116401000000008311171561081057600080fd5b91908080601f016020809104026020016040519081016040528093929190818152602001838380828437600081840152601f19601f820116905080830192505050505050509192919290505050612b70565b604051808215151515815260200191505060405180910390f35b6109356004803603602081101561089257600080fd5b81019080803590602001906401000000008111156108af57600080fd5b8201836020820111156108c157600080fd5b803590602001918460018302840111640100000000831117156108e357600080fd5b91908080601f016020809104026020016040519081016040528093929190818152602001838380828437600081840152601f19601f820116905080830192505050505050509192919290505050612eae565b6040518082815260200191505060405180910390f35b606060011515600160003373ffffffffffffffffffffffffffffffffffffffff1673ffffffffffffffffffffffffffffffffffffffff16815260200190815260200160002060000160169054906101000a900460ff1615151415610bad57600060038111156109b657fe5b600160003373ffffffffffffffffffffffffffffffffffffffff1673ffffffffffffffffffffffffffffffffffffffff16815260200190815260200160002060000160149054906101000a900460ff166003811115610a1157fe5b1415610a54576040518060400160405280601681526020017f55736572206861732061646d696e206163636573732e000000000000000000008152509050610be6565b60016003811115610a6157fe5b600160003373ffffffffffffffffffffffffffffffffffffffff1673ffffffffffffffffffffffffffffffffffffffff16815260200190815260200160002060000160149054906101000a900460ff166003811115610abc57fe5b1415610ae25760405180606001604052806025815260200161562e602591399050610be6565b60026003811115610aef57fe5b600160003373ffffffffffffffffffffffffffffffffffffffff1673ffffffffffffffffffffffffffffffffffffffff16815260200190815260200160002060000160149054906101000a900460ff166003811115610b4a57fe5b1415610b8d576040518060400160405280601f81526020017f55736572206861732072656164207065726d697373696f6e73206f6e6c792e008152509050610be6565b6040518060600160405280602b8152602001615603602b91399050610be6565b6040518060400160405280601781526020017f55736572206973206e6f74207265636f676e697a65642e00000000000000000081525090505b90565b60011515600160003373ffffffffffffffffffffffffffffffffffffffff1673ffffffffffffffffffffffffffffffffffffffff16815260200190815260200160002060000160169054906101000a900460ff161515148015610d21575060006003811115610c5457fe5b600160003373ffffffffffffffffffffffffffffffffffffffff1673ffffffffffffffffffffffffffffffffffffffff16815260200190815260200160002060000160149054906101000a900460ff166003811115610caf57fe5b1480610d20575060016003811115610cc357fe5b600160003373ffffffffffffffffffffffffffffffffffffffff1673ffffffffffffffffffffffffffffffffffffffff16815260200190815260200160002060000160149054906101000a900460ff166003811115610d1e57fe5b145b5b610d2961094b565b90610dcf576040517f08c379a00000000000000000000000000000000000000000000000000000000081526004018080602001828103825283818151815260200191508051906020019080838360005b83811015610d94578082015181840152602081019050610d79565b50505050905090810190601f168015610dc15780820380516001836020036101000a031916815260200191505b509250505060405180910390fd5b50806001151560036000610de2846131ec565b73ffffffffffffffffffffffffffffffffffffffff1673ffffffffffffffffffffffffffffffffffffffff16815260200190815260200160002060020160009054906101000a900460ff16151514610ea2576040517f08c379a000000000000000000000000000000000000000000000000000000000815260040180806020018281038252601b8152602001807f546869732064657669636520646f6573206e6f742065786973742e000000000081525060200191505060405180910390fd5b60036000610eaf846131ec565b73ffffffffffffffffffffffffffffffffffffffff1673ffffffffffffffffffffffffffffffffffffffff16815260200190815260200160002060000160009054906101000a900473ffffffffffffffffffffffffffffffffffffffff1673ffffffffffffffffffffffffffffffffffffffff16639942ec6f6040518163ffffffff1660e01b8152600401600060405180830381600087803b158015610f5457600080fd5b505af1158015610f68573d6000803e3d6000fd5b505050505050565b60011515600160003373ffffffffffffffffffffffffffffffffffffffff1673ffffffffffffffffffffffffffffffffffffffff16815260200190815260200160002060000160169054906101000a900460ff1615151480156110a8575060006003811115610fdb57fe5b600160003373ffffffffffffffffffffffffffffffffffffffff1673ffffffffffffffffffffffffffffffffffffffff16815260200190815260200160002060000160149054906101000a900460ff16600381111561103657fe5b14806110a757506001600381111561104a57fe5b600160003373ffffffffffffffffffffffffffffffffffffffff1673ffffffffffffffffffffffffffffffffffffffff16815260200190815260200160002060000160149054906101000a900460ff1660038111156110a557fe5b145b5b6110b061094b565b90611156576040517f08c379a00000000000000000000000000000000000000000000000000000000081526004018080602001828103825283818151815260200191508051906020019080838360005b8381101561111b578082015181840152602081019050611100565b50505050905090810190601f1680156111485780820380516001836020036101000a031916815260200191505b509250505060405180910390fd5b50816001151560036000611169846131ec565b73ffffffffffffffffffffffffffffffffffffffff1673ffffffffffffffffffffffffffffffffffffffff16815260200190815260200160002060020160009054906101000a900460ff16151514611229576040517f08c379a000000000000000000000000000000000000000000000000000000000815260040180806020018281038252601b8152602001807f546869732064657669636520646f6573206e6f742065786973742e000000000081525060200191505060405180910390fd5b60036000611236856131ec565b73ffffffffffffffffffffffffffffffffffffffff1673ffffffffffffffffffffffffffffffffffffffff16815260200190815260200160002060000160009054906101000a900473ffffffffffffffffffffffffffffffffffffffff1673ffffffffffffffffffffffffffffffffffffffff1663a3829667836040518263ffffffff1660e01b815260040180828152602001915050600060405180830381600087803b1580156112e657600080fd5b505af11580156112fa573d6000803e3d6000fd5b50505050505050565b60011515600160003373ffffffffffffffffffffffffffffffffffffffff1673ffffffffffffffffffffffffffffffffffffffff16815260200190815260200160002060000160169054906101000a900460ff1615151480156113cb57506000600381111561136e57fe5b600160003373ffffffffffffffffffffffffffffffffffffffff1673ffffffffffffffffffffffffffffffffffffffff16815260200190815260200160002060000160149054906101000a900460ff1660038111156113c957fe5b145b6113d361094b565b90611479576040517f08c379a00000000000000000000000000000000000000000000000000000000081526004018080602001828103825283818151815260200191508051906020019080838360005b8381101561143e578082015181840152602081019050611423565b50505050905090810190601f16801561146b5780820380516001836020036101000a031916815260200191505b509250505060405180910390fd5b5060405180608001604052808273ffffffffffffffffffffffffffffffffffffffff168152602001600160038111156114ae57fe5b815260200160011515815260200160011515815250600160003373ffffffffffffffffffffffffffffffffffffffff1673ffffffffffffffffffffffffffffffffffffffff16815260200190815260200160002060008201518160000160006101000a81548173ffffffffffffffffffffffffffffffffffffffff021916908373ffffffffffffffffffffffffffffffffffffffff16021790555060208201518160000160146101000a81548160ff0219169083600381111561156d57fe5b021790555060408201518160000160156101000a81548160ff02191690831515021790555060608201518160000160166101000a81548160ff02191690831515021790555090505050565b60011515600160003373ffffffffffffffffffffffffffffffffffffffff1673ffffffffffffffffffffffffffffffffffffffff16815260200190815260200160002060000160169054906101000a900460ff1615151480156116f057506000600381111561162357fe5b600160003373ffffffffffffffffffffffffffffffffffffffff1673ffffffffffffffffffffffffffffffffffffffff16815260200190815260200160002060000160149054906101000a900460ff16600381111561167e57fe5b14806116ef57506001600381111561169257fe5b600160003373ffffffffffffffffffffffffffffffffffffffff1673ffffffffffffffffffffffffffffffffffffffff16815260200190815260200160002060000160149054906101000a900460ff1660038111156116ed57fe5b145b5b6116f861094b565b9061179e576040517f08c379a00000000000000000000000000000000000000000000000000000000081526004018080602001828103825283818151815260200191508051906020019080838360005b83811015611763578082015181840152602081019050611748565b50505050905090810190601f1680156117905780820380516001836020036101000a031916815260200191505b509250505060405180910390fd5b508060011515600360006117b1846131ec565b73ffffffffffffffffffffffffffffffffffffffff1673ffffffffffffffffffffffffffffffffffffffff16815260200190815260200160002060020160009054906101000a900460ff16151514611871576040517f08c379a000000000000000000000000000000000000000000000000000000000815260040180806020018281038252601b8152602001807f546869732064657669636520646f6573206e6f742065786973742e000000000081525060200191505060405180910390fd5b6003600061187e846131ec565b73ffffffffffffffffffffffffffffffffffffffff1673ffffffffffffffffffffffffffffffffffffffff16815260200190815260200160002060000160009054906101000a900473ffffffffffffffffffffffffffffffffffffffff1673ffffffffffffffffffffffffffffffffffffffff1663c27fc3056040518163ffffffff1660e01b8152600401600060405180830381600087803b15801561192357600080fd5b505af1158015611937573d6000803e3d6000fd5b505050505050565b6000816001151560036000611953846131ec565b73ffffffffffffffffffffffffffffffffffffffff1673ffffffffffffffffffffffffffffffffffffffff16815260200190815260200160002060020160009054906101000a900460ff16151514611a13576040517f08c379a000000000000000000000000000000000000000000000000000000000815260040180806020018281038252601b8152602001807f546869732064657669636520646f6573206e6f742065786973742e000000000081525060200191505060405180910390fd5b60036000611a20856131ec565b73ffffffffffffffffffffffffffffffffffffffff1673ffffffffffffffffffffffffffffffffffffffff16815260200190815260200160002060000160009054906101000a900473ffffffffffffffffffffffffffffffffffffffff1673ffffffffffffffffffffffffffffffffffffffff166368d8ca7a6040518163ffffffff1660e01b815260040160206040518083038186803b158015611ac357600080fd5b505afa158015611ad7573d6000803e3d6000fd5b505050506040513d6020811015611aed57600080fd5b8101908080519060200190929190505050915050919050565b600060011515600160003373ffffffffffffffffffffffffffffffffffffffff1673ffffffffffffffffffffffffffffffffffffffff16815260200190815260200160002060000160169054906101000a900460ff161515148015611bd05750600380811115611b7257fe5b600160003373ffffffffffffffffffffffffffffffffffffffff1673ffffffffffffffffffffffffffffffffffffffff16815260200190815260200160002060000160149054906101000a900460ff166003811115611bcd57fe5b14155b611bd861094b565b90611c7e576040517f08c379a00000000000000000000000000000000000000000000000000000000081526004018080602001828103825283818151815260200191508051906020019080838360005b83811015611c43578082015181840152602081019050611c28565b50505050905090810190601f168015611c705780820380516001836020036101000a031916815260200191505b509250505060405180910390fd5b50816001151560036000611c91846131ec565b73ffffffffffffffffffffffffffffffffffffffff1673ffffffffffffffffffffffffffffffffffffffff16815260200190815260200160002060020160009054906101000a900460ff16151514611d51576040517f08c379a000000000000000000000000000000000000000000000000000000000815260040180806020018281038252601b8152602001807f546869732064657669636520646f6573206e6f742065786973742e000000000081525060200191505060405180910390fd5b60036000611d5e856131ec565b73ffffffffffffffffffffffffffffffffffffffff1673ffffffffffffffffffffffffffffffffffffffff16815260200190815260200160002060000160009054906101000a900473ffffffffffffffffffffffffffffffffffffffff1673ffffffffffffffffffffffffffffffffffffffff1663ed596ee96040518163ffffffff1660e01b815260040160206040518083038186803b158015611e0157600080fd5b505afa158015611e15573d6000803e3d6000fd5b505050506040513d6020811015611e2b57600080fd5b8101908080519060200190929190505050915050919050565b60011515600160003373ffffffffffffffffffffffffffffffffffffffff1673ffffffffffffffffffffffffffffffffffffffff16815260200190815260200160002060000160169054906101000a900460ff161515148015611f7c575060006003811115611eaf57fe5b600160003373ffffffffffffffffffffffffffffffffffffffff1673ffffffffffffffffffffffffffffffffffffffff16815260200190815260200160002060000160149054906101000a900460ff166003811115611f0a57fe5b1480611f7b575060016003811115611f1e57fe5b600160003373ffffffffffffffffffffffffffffffffffffffff1673ffffffffffffffffffffffffffffffffffffffff16815260200190815260200160002060000160149054906101000a900460ff166003811115611f7957fe5b145b5b611f8461094b565b9061202a576040517f08c379a00000000000000000000000000000000000000000000000000000000081526004018080602001828103825283818151815260200191508051906020019080838360005b83811015611fef578082015181840152602081019050611fd4565b50505050905090810190601f16801561201c5780820380516001836020036101000a031916815260200191505b509250505060405180910390fd5b5080600115156003600061203d846131ec565b73ffffffffffffffffffffffffffffffffffffffff1673ffffffffffffffffffffffffffffffffffffffff16815260200190815260200160002060020160009054906101000a900460ff161515146120fd576040517f08c379a000000000000000000000000000000000000000000000000000000000815260040180806020018281038252601b8152602001807f546869732064657669636520646f6573206e6f742065786973742e000000000081525060200191505060405180910390fd5b6003600061210a846131ec565b73ffffffffffffffffffffffffffffffffffffffff1673ffffffffffffffffffffffffffffffffffffffff16815260200190815260200160002060000160009054906101000a900473ffffffffffffffffffffffffffffffffffffffff1673ffffffffffffffffffffffffffffffffffffffff1663c27fc3056040518163ffffffff1660e01b8152600401600060405180830381600087803b1580156121af57600080fd5b505af11580156121c3573d6000803e3d6000fd5b505050505050565b60011515600160003373ffffffffffffffffffffffffffffffffffffffff1673ffffffffffffffffffffffffffffffffffffffff16815260200190815260200160002060000160169054906101000a900460ff16151514801561230357506000600381111561223657fe5b600160003373ffffffffffffffffffffffffffffffffffffffff1673ffffffffffffffffffffffffffffffffffffffff16815260200190815260200160002060000160149054906101000a900460ff16600381111561229157fe5b14806123025750600160038111156122a557fe5b600160003373ffffffffffffffffffffffffffffffffffffffff1673ffffffffffffffffffffffffffffffffffffffff16815260200190815260200160002060000160149054906101000a900460ff16600381111561230057fe5b145b5b61230b61094b565b906123b1576040517f08c379a00000000000000000000000000000000000000000000000000000000081526004018080602001828103825283818151815260200191508051906020019080838360005b8381101561237657808201518184015260208101905061235b565b50505050905090810190601f1680156123a35780820380516001836020036101000a031916815260200191505b509250505060405180910390fd5b508060011515600360006123c4846131ec565b73ffffffffffffffffffffffffffffffffffffffff1673ffffffffffffffffffffffffffffffffffffffff16815260200190815260200160002060020160009054906101000a900460ff16151514612484576040517f08c379a000000000000000000000000000000000000000000000000000000000815260040180806020018281038252601b8152602001807f546869732064657669636520646f6573206e6f742065786973742e000000000081525060200191505060405180910390fd5b60036000612491846131ec565b73ffffffffffffffffffffffffffffffffffffffff1673ffffffffffffffffffffffffffffffffffffffff16815260200190815260200160002060000160009054906101000a900473ffffffffffffffffffffffffffffffffffffffff1673ffffffffffffffffffffffffffffffffffffffff16639942ec6f6040518163ffffffff1660e01b8152600401600060405180830381600087803b15801561253657600080fd5b505af115801561254a573d6000803e3d6000fd5b505050505050565b60011515600160003373ffffffffffffffffffffffffffffffffffffffff1673ffffffffffffffffffffffffffffffffffffffff16815260200190815260200160002060000160169054906101000a900460ff16151514801561261a5750600060038111156125bd57fe5b600160003373ffffffffffffffffffffffffffffffffffffffff1673ffffffffffffffffffffffffffffffffffffffff16815260200190815260200160002060000160149054906101000a900460ff16600381111561261857fe5b145b61262261094b565b906126c8576040517f08c379a00000000000000000000000000000000000000000000000000000000081526004018080602001828103825283818151815260200191508051906020019080838360005b8381101561268d578082015181840152602081019050612672565b50505050905090810190601f1680156126ba5780820380516001836020036101000a031916815260200191505b509250505060405180910390fd5b5060001515600360006126da856131ec565b73ffffffffffffffffffffffffffffffffffffffff1673ffffffffffffffffffffffffffffffffffffffff16815260200190815260200160002060020160009054906101000a900460ff1615151461277d576040517f08c379a000000000000000000000000000000000000000000000000000000000815260040180806020018281038252602c815260200180615653602c913960400191505060405180910390fd5b600080600281111561278b57fe5b82600281111561279757fe5b14156127cd576040516127a9906133f6565b604051809103906000f0801580156127c5573d6000803e3d6000fd5b509050612868565b600160028111156127da57fe5b8260028111156127e657fe5b141561281c576040516127f890613403565b604051809103906000f080158015612814573d6000803e3d6000fd5b509050612867565b60028081111561282857fe5b82600281111561283457fe5b14156128665760405161284690613410565b604051809103906000f080158015612862573d6000803e3d6000fd5b5090505b5b5b60008173ffffffffffffffffffffffffffffffffffffffff1663638b2f626040518163ffffffff1660e01b815260040160206040518083038186803b1580156128b057600080fd5b505afa1580156128c4573d6000803e3d6000fd5b505050506040513d60208110156128da57600080fd5b8101908080519060200190929190505050905060405180606001604052808373ffffffffffffffffffffffffffffffffffffffff16815260200185815260200160011515815250600360008373ffffffffffffffffffffffffffffffffffffffff1673ffffffffffffffffffffffffffffffffffffffff16815260200190815260200160002060008201518160000160006101000a81548173ffffffffffffffffffffffffffffffffffffffff021916908373ffffffffffffffffffffffffffffffffffffffff16021790555060208201518160010190805190602001906129c392919061341d565b5060408201518160020160006101000a81548160ff021916908315150217905550905050600360008273ffffffffffffffffffffffffffffffffffffffff1673ffffffffffffffffffffffffffffffffffffffff16815260200190815260200160002060000160009054906101000a900473ffffffffffffffffffffffffffffffffffffffff1673ffffffffffffffffffffffffffffffffffffffff16630eb92b0d846040518263ffffffff1660e01b815260040180826002811115612a8557fe5b60ff168152602001915050600060405180830381600087803b158015612aaa57600080fd5b505af1158015612abe573d6000803e3d6000fd5b50505050806002856040518082805190602001908083835b60208310612af95780518252602082019150602081019050602083039250612ad6565b6001836020036101000a038019825116818451168082178552505050505050905001915050908152602001604051809103902060006101000a81548173ffffffffffffffffffffffffffffffffffffffff021916908373ffffffffffffffffffffffffffffffffffffffff16021790555050505050565b600060011515600160003373ffffffffffffffffffffffffffffffffffffffff1673ffffffffffffffffffffffffffffffffffffffff16815260200190815260200160002060000160169054906101000a900460ff161515148015612c3a5750600380811115612bdc57fe5b600160003373ffffffffffffffffffffffffffffffffffffffff1673ffffffffffffffffffffffffffffffffffffffff16815260200190815260200160002060000160149054906101000a900460ff166003811115612c3757fe5b14155b612c4261094b565b90612ce8576040517f08c379a00000000000000000000000000000000000000000000000000000000081526004018080602001828103825283818151815260200191508051906020019080838360005b83811015612cad578082015181840152602081019050612c92565b50505050905090810190601f168015612cda5780820380516001836020036101000a031916815260200191505b509250505060405180910390fd5b50816001151560036000612cfb846131ec565b73ffffffffffffffffffffffffffffffffffffffff1673ffffffffffffffffffffffffffffffffffffffff16815260200190815260200160002060020160009054906101000a900460ff16151514612dbb576040517f08c379a000000000000000000000000000000000000000000000000000000000815260040180806020018281038252601b8152602001807f546869732064657669636520646f6573206e6f742065786973742e000000000081525060200191505060405180910390fd5b60036000612dc8856131ec565b73ffffffffffffffffffffffffffffffffffffffff1673ffffffffffffffffffffffffffffffffffffffff16815260200190815260200160002060000160009054906101000a900473ffffffffffffffffffffffffffffffffffffffff1673ffffffffffffffffffffffffffffffffffffffff1663ed596ee96040518163ffffffff1660e01b815260040160206040518083038186803b158015612e6b57600080fd5b505afa158015612e7f573d6000803e3d6000fd5b505050506040513d6020811015612e9557600080fd5b8101908080519060200190929190505050915050919050565b600060011515600160003373ffffffffffffffffffffffffffffffffffffffff1673ffffffffffffffffffffffffffffffffffffffff16815260200190815260200160002060000160169054906101000a900460ff161515148015612f785750600380811115612f1a57fe5b600160003373ffffffffffffffffffffffffffffffffffffffff1673ffffffffffffffffffffffffffffffffffffffff16815260200190815260200160002060000160149054906101000a900460ff166003811115612f7557fe5b14155b612f8061094b565b90613026576040517f08c379a00000000000000000000000000000000000000000000000000000000081526004018080602001828103825283818151815260200191508051906020019080838360005b83811015612feb578082015181840152602081019050612fd0565b50505050905090810190601f1680156130185780820380516001836020036101000a031916815260200191505b509250505060405180910390fd5b50816001151560036000613039846131ec565b73ffffffffffffffffffffffffffffffffffffffff1673ffffffffffffffffffffffffffffffffffffffff16815260200190815260200160002060020160009054906101000a900460ff161515146130f9576040517f08c379a000000000000000000000000000000000000000000000000000000000815260040180806020018281038252601b8152602001807f546869732064657669636520646f6573206e6f742065786973742e000000000081525060200191505060405180910390fd5b60036000613106856131ec565b73ffffffffffffffffffffffffffffffffffffffff1673ffffffffffffffffffffffffffffffffffffffff16815260200190815260200160002060000160009054906101000a900473ffffffffffffffffffffffffffffffffffffffff1673ffffffffffffffffffffffffffffffffffffffff1663be7bf0c56040518163ffffffff1660e01b815260040160206040518083038186803b1580156131a957600080fd5b505afa1580156131bd573d6000803e3d6000fd5b505050506040513d60208110156131d357600080fd5b8101908080519060200190929190505050915050919050565b600060011515600160003373ffffffffffffffffffffffffffffffffffffffff1673ffffffffffffffffffffffffffffffffffffffff16815260200190815260200160002060000160169054906101000a900460ff1615151480156132b657506000600381111561325957fe5b600160003373ffffffffffffffffffffffffffffffffffffffff1673ffffffffffffffffffffffffffffffffffffffff16815260200190815260200160002060000160149054906101000a900460ff1660038111156132b457fe5b145b6132be61094b565b90613364576040517f08c379a00000000000000000000000000000000000000000000000000000000081526004018080602001828103825283818151815260200191508051906020019080838360005b8381101561332957808201518184015260208101905061330e565b50505050905090810190601f1680156133565780820380516001836020036101000a031916815260200191505b509250505060405180910390fd5b506002826040518082805190602001908083835b6020831061339b5780518252602082019150602081019050602083039250613378565b6001836020036101000a038019825116818451168082178552505050505050905001915050908152602001604051809103902060009054906101000a900473ffffffffffffffffffffffffffffffffffffffff169050919050565b610b3b806134c383390190565b610b2080613ffe83390190565b610ae580614b1e83390190565b828054600181600116156101000203166002900490600052602060002090601f016020900481019282601f1061345e57805160ff191683800117855561348c565b8280016001018555821561348c579182015b8281111561348b578251825591602001919060010190613470565b5b509050613499919061349d565b5090565b6134bf91905b808211156134bb5760008160009055506001016134a3565b5090565b9056fe608060405234801561001057600080fd5b50336000806101000a81548173ffffffffffffffffffffffffffffffffffffffff021916908373ffffffffffffffffffffffffffffffffffffffff1602179055506001600060156101000a81548160ff021916908315150217905550610ac08061007b6000396000f3fe608060405234801561001057600080fd5b50600436106100935760003560e01c8063a382966711610066578063a382966714610149578063be7bf0c514610177578063c27fc30514610195578063de9375f21461019f578063ed596ee9146101e957610093565b80630eb92b0d14610098578063638b2f62146100c957806368d8ca7a146101135780639942ec6f1461013f575b600080fd5b6100c7600480360360208110156100ae57600080fd5b81019080803560ff16906020019092919050505061020b565b005b6100d16102f3565b604051808273ffffffffffffffffffffffffffffffffffffffff1673ffffffffffffffffffffffffffffffffffffffff16815260200191505060405180910390f35b61011b6103bd565b6040518082600281111561012b57fe5b60ff16815260200191505060405180910390f35b610147610496565b005b6101756004803603602081101561015f57600080fd5b810190808035906020019092919050505061060f565b005b61017f61076f565b6040518082815260200191505060405180910390f35b61019d610774565b005b6101a76108ee565b604051808273ffffffffffffffffffffffffffffffffffffffff1673ffffffffffffffffffffffffffffffffffffffff16815260200191505060405180910390f35b6101f1610917565b604051808215151515815260200191505060405180910390f35b6000809054906101000a900473ffffffffffffffffffffffffffffffffffffffff1673ffffffffffffffffffffffffffffffffffffffff163373ffffffffffffffffffffffffffffffffffffffff16146102cd576040517f08c379a00000000000000000000000000000000000000000000000000000000081526004018080602001828103825260138152602001807f43616c6c6572206973206e6f74206f776e65720000000000000000000000000081525060200191505060405180910390fd5b80600060146101000a81548160ff021916908360028111156102eb57fe5b021790555050565b60008060009054906101000a900473ffffffffffffffffffffffffffffffffffffffff1673ffffffffffffffffffffffffffffffffffffffff163373ffffffffffffffffffffffffffffffffffffffff16146103b7576040517f08c379a00000000000000000000000000000000000000000000000000000000081526004018080602001828103825260138152602001807f43616c6c6572206973206e6f74206f776e65720000000000000000000000000081525060200191505060405180910390fd5b30905090565b60008060009054906101000a900473ffffffffffffffffffffffffffffffffffffffff1673ffffffffffffffffffffffffffffffffffffffff163373ffffffffffffffffffffffffffffffffffffffff1614610481576040517f08c379a00000000000000000000000000000000000000000000000000000000081526004018080602001828103825260138152602001807f43616c6c6572206973206e6f74206f776e65720000000000000000000000000081525060200191505060405180910390fd5b600060149054906101000a900460ff16905090565b6000809054906101000a900473ffffffffffffffffffffffffffffffffffffffff1673ffffffffffffffffffffffffffffffffffffffff163373ffffffffffffffffffffffffffffffffffffffff1614610558576040517f08c379a00000000000000000000000000000000000000000000000000000000081526004018080602001828103825260138152602001807f43616c6c6572206973206e6f74206f776e65720000000000000000000000000081525060200191505060405180910390fd5b6000600281111561056557fe5b600060149054906101000a900460ff16600281111561058057fe5b146105f3576040517f08c379a000000000000000000000000000000000000000000000000000000000815260040180806020018281038252601a8152602001807f5468697320646576696365206973206e6f742061206c6f636b2e00000000000081525060200191505060405180910390fd5b60008060156101000a81548160ff021916908315150217905550565b6000809054906101000a900473ffffffffffffffffffffffffffffffffffffffff1673ffffffffffffffffffffffffffffffffffffffff163373ffffffffffffffffffffffffffffffffffffffff16146106d1576040517f08c379a00000000000000000000000000000000000000000000000000000000081526004018080602001828103825260138152602001807f43616c6c6572206973206e6f74206f776e65720000000000000000000000000081525060200191505060405180910390fd5b600060028111156106de57fe5b600060149054906101000a900460ff1660028111156106f957fe5b1461076c576040517f08c379a000000000000000000000000000000000000000000000000000000000815260040180806020018281038252601a8152602001807f5468697320646576696365206973206e6f742061206c6f636b2e00000000000081525060200191505060405180910390fd5b50565b600090565b6000809054906101000a900473ffffffffffffffffffffffffffffffffffffffff1673ffffffffffffffffffffffffffffffffffffffff163373ffffffffffffffffffffffffffffffffffffffff1614610836576040517f08c379a00000000000000000000000000000000000000000000000000000000081526004018080602001828103825260138152602001807f43616c6c6572206973206e6f74206f776e65720000000000000000000000000081525060200191505060405180910390fd5b6000600281111561084357fe5b600060149054906101000a900460ff16600281111561085e57fe5b146108d1576040517f08c379a000000000000000000000000000000000000000000000000000000000815260040180806020018281038252601a8152602001807f5468697320646576696365206973206e6f742061206c6f636b2e00000000000081525060200191505060405180910390fd5b6001600060156101000a81548160ff021916908315150217905550565b60008060009054906101000a900473ffffffffffffffffffffffffffffffffffffffff16905090565b60008060009054906101000a900473ffffffffffffffffffffffffffffffffffffffff1673ffffffffffffffffffffffffffffffffffffffff163373ffffffffffffffffffffffffffffffffffffffff16146109db576040517f08c379a00000000000000000000000000000000000000000000000000000000081526004018080602001828103825260138152602001807f43616c6c6572206973206e6f74206f776e65720000000000000000000000000081525060200191505060405180910390fd5b600060028111156109e857fe5b600060149054906101000a900460ff166002811115610a0357fe5b14610a76576040517f08c379a000000000000000000000000000000000000000000000000000000000815260040180806020018281038252601a8152602001807f5468697320646576696365206973206e6f742061206c6f636b2e00000000000081525060200191505060405180910390fd5b600060159054906101000a900460ff1690509056fea265627a7a72315820caf3ec4241b3d1233cefe44df12c7194ebd5b49f636e692e825f0bdf9e06f29764736f6c63430005100032608060405234801561001057600080fd5b50336000806101000a81548173ffffffffffffffffffffffffffffffffffffffff021916908373ffffffffffffffffffffffffffffffffffffffff160217905550610ac0806100606000396000f3fe608060405234801561001057600080fd5b50600436106100935760003560e01c8063a382966711610066578063a382966714610149578063be7bf0c514610177578063c27fc30514610195578063de9375f21461019f578063ed596ee9146101e957610093565b80630eb92b0d14610098578063638b2f62146100c957806368d8ca7a146101135780639942ec6f1461013f575b600080fd5b6100c7600480360360208110156100ae57600080fd5b81019080803560ff16906020019092919050505061020b565b005b6100d16102f3565b604051808273ffffffffffffffffffffffffffffffffffffffff1673ffffffffffffffffffffffffffffffffffffffff16815260200191505060405180910390f35b61011b6103bd565b6040518082600281111561012b57fe5b60ff16815260200191505060405180910390f35b610147610496565b005b6101756004803603602081101561015f57600080fd5b810190808035906020019092919050505061060f565b005b61017f61076f565b6040518082815260200191505060405180910390f35b61019d610774565b005b6101a76108ee565b604051808273ffffffffffffffffffffffffffffffffffffffff1673ffffffffffffffffffffffffffffffffffffffff16815260200191505060405180910390f35b6101f1610917565b604051808215151515815260200191505060405180910390f35b6000809054906101000a900473ffffffffffffffffffffffffffffffffffffffff1673ffffffffffffffffffffffffffffffffffffffff163373ffffffffffffffffffffffffffffffffffffffff16146102cd576040517f08c379a00000000000000000000000000000000000000000000000000000000081526004018080602001828103825260138152602001807f43616c6c6572206973206e6f74206f776e65720000000000000000000000000081525060200191505060405180910390fd5b80600060146101000a81548160ff021916908360028111156102eb57fe5b021790555050565b60008060009054906101000a900473ffffffffffffffffffffffffffffffffffffffff1673ffffffffffffffffffffffffffffffffffffffff163373ffffffffffffffffffffffffffffffffffffffff16146103b7576040517f08c379a00000000000000000000000000000000000000000000000000000000081526004018080602001828103825260138152602001807f43616c6c6572206973206e6f74206f776e65720000000000000000000000000081525060200191505060405180910390fd5b30905090565b60008060009054906101000a900473ffffffffffffffffffffffffffffffffffffffff1673ffffffffffffffffffffffffffffffffffffffff163373ffffffffffffffffffffffffffffffffffffffff1614610481576040517f08c379a00000000000000000000000000000000000000000000000000000000081526004018080602001828103825260138152602001807f43616c6c6572206973206e6f74206f776e65720000000000000000000000000081525060200191505060405180910390fd5b600060149054906101000a900460ff16905090565b6000809054906101000a900473ffffffffffffffffffffffffffffffffffffffff1673ffffffffffffffffffffffffffffffffffffffff163373ffffffffffffffffffffffffffffffffffffffff1614610558576040517f08c379a00000000000000000000000000000000000000000000000000000000081526004018080602001828103825260138152602001807f43616c6c6572206973206e6f74206f776e65720000000000000000000000000081525060200191505060405180910390fd5b6000600281111561056557fe5b600060149054906101000a900460ff16600281111561058057fe5b146105f3576040517f08c379a000000000000000000000000000000000000000000000000000000000815260040180806020018281038252601a8152602001807f5468697320646576696365206973206e6f742061206c6f636b2e00000000000081525060200191505060405180910390fd5b60008060156101000a81548160ff021916908315150217905550565b6000809054906101000a900473ffffffffffffffffffffffffffffffffffffffff1673ffffffffffffffffffffffffffffffffffffffff163373ffffffffffffffffffffffffffffffffffffffff16146106d1576040517f08c379a00000000000000000000000000000000000000000000000000000000081526004018080602001828103825260138152602001807f43616c6c6572206973206e6f74206f776e65720000000000000000000000000081525060200191505060405180910390fd5b600060028111156106de57fe5b600060149054906101000a900460ff1660028111156106f957fe5b1461076c576040517f08c379a000000000000000000000000000000000000000000000000000000000815260040180806020018281038252601a8152602001807f5468697320646576696365206973206e6f742061206c6f636b2e00000000000081525060200191505060405180910390fd5b50565b600090565b6000809054906101000a900473ffffffffffffffffffffffffffffffffffffffff1673ffffffffffffffffffffffffffffffffffffffff163373ffffffffffffffffffffffffffffffffffffffff1614610836576040517f08c379a00000000000000000000000000000000000000000000000000000000081526004018080602001828103825260138152602001807f43616c6c6572206973206e6f74206f776e65720000000000000000000000000081525060200191505060405180910390fd5b6000600281111561084357fe5b600060149054906101000a900460ff16600281111561085e57fe5b146108d1576040517f08c379a000000000000000000000000000000000000000000000000000000000815260040180806020018281038252601a8152602001807f5468697320646576696365206973206e6f742061206c6f636b2e00000000000081525060200191505060405180910390fd5b6001600060156101000a81548160ff021916908315150217905550565b60008060009054906101000a900473ffffffffffffffffffffffffffffffffffffffff16905090565b60008060009054906101000a900473ffffffffffffffffffffffffffffffffffffffff1673ffffffffffffffffffffffffffffffffffffffff163373ffffffffffffffffffffffffffffffffffffffff16146109db576040517f08c379a00000000000000000000000000000000000000000000000000000000081526004018080602001828103825260138152602001807f43616c6c6572206973206e6f74206f776e65720000000000000000000000000081525060200191505060405180910390fd5b600060028111156109e857fe5b600060149054906101000a900460ff166002811115610a0357fe5b14610a76576040517f08c379a000000000000000000000000000000000000000000000000000000000815260040180806020018281038252601a8152602001807f5468697320646576696365206973206e6f742061206c6f636b2e00000000000081525060200191505060405180910390fd5b600060159054906101000a900460ff1690509056fea265627a7a72315820131500e3750596c682c7d2c20837c07d97c51761681e0e876595468bdd0f3a0264736f6c63430005100032608060405234801561001057600080fd5b50336000806101000a81548173ffffffffffffffffffffffffffffffffffffffff021916908373ffffffffffffffffffffffffffffffffffffffff160217905550610a85806100606000396000f3fe608060405234801561001057600080fd5b50600436106100935760003560e01c8063a382966711610066578063a382966714610149578063be7bf0c514610177578063c27fc30514610195578063de9375f21461019f578063ed596ee9146101e957610093565b80630eb92b0d14610098578063638b2f62146100c957806368d8ca7a146101135780639942ec6f1461013f575b600080fd5b6100c7600480360360208110156100ae57600080fd5b81019080803560ff16906020019092919050505061020b565b005b6100d16102f3565b604051808273ffffffffffffffffffffffffffffffffffffffff1673ffffffffffffffffffffffffffffffffffffffff16815260200191505060405180910390f35b61011b6103bd565b6040518082600281111561012b57fe5b60ff16815260200191505060405180910390f35b610147610496565b005b6101756004803603602081101561015f57600080fd5b81019080803590602001909291905050506105f5565b005b61017f61075c565b6040518082815260200191505060405180910390f35b61019d610766565b005b6101a76108c5565b604051808273ffffffffffffffffffffffffffffffffffffffff1673ffffffffffffffffffffffffffffffffffffffff16815260200191505060405180910390f35b6101f16108ee565b604051808215151515815260200191505060405180910390f35b6000809054906101000a900473ffffffffffffffffffffffffffffffffffffffff1673ffffffffffffffffffffffffffffffffffffffff163373ffffffffffffffffffffffffffffffffffffffff16146102cd576040517f08c379a00000000000000000000000000000000000000000000000000000000081526004018080602001828103825260138152602001807f43616c6c6572206973206e6f74206f776e65720000000000000000000000000081525060200191505060405180910390fd5b80600060146101000a81548160ff021916908360028111156102eb57fe5b021790555050565b60008060009054906101000a900473ffffffffffffffffffffffffffffffffffffffff1673ffffffffffffffffffffffffffffffffffffffff163373ffffffffffffffffffffffffffffffffffffffff16146103b7576040517f08c379a00000000000000000000000000000000000000000000000000000000081526004018080602001828103825260138152602001807f43616c6c6572206973206e6f74206f776e65720000000000000000000000000081525060200191505060405180910390fd5b30905090565b60008060009054906101000a900473ffffffffffffffffffffffffffffffffffffffff1673ffffffffffffffffffffffffffffffffffffffff163373ffffffffffffffffffffffffffffffffffffffff1614610481576040517f08c379a00000000000000000000000000000000000000000000000000000000081526004018080602001828103825260138152602001807f43616c6c6572206973206e6f74206f776e65720000000000000000000000000081525060200191505060405180910390fd5b600060149054906101000a900460ff16905090565b6000809054906101000a900473ffffffffffffffffffffffffffffffffffffffff1673ffffffffffffffffffffffffffffffffffffffff163373ffffffffffffffffffffffffffffffffffffffff1614610558576040517f08c379a00000000000000000000000000000000000000000000000000000000081526004018080602001828103825260138152602001807f43616c6c6572206973206e6f74206f776e65720000000000000000000000000081525060200191505060405180910390fd5b6000600281111561056557fe5b600060149054906101000a900460ff16600281111561058057fe5b146105f3576040517f08c379a000000000000000000000000000000000000000000000000000000000815260040180806020018281038252601a8152602001807f5468697320646576696365206973206e6f742061206c6f636b2e00000000000081525060200191505060405180910390fd5b565b6000809054906101000a900473ffffffffffffffffffffffffffffffffffffffff1673ffffffffffffffffffffffffffffffffffffffff163373ffffffffffffffffffffffffffffffffffffffff16146106b7576040517f08c379a00000000000000000000000000000000000000000000000000000000081526004018080602001828103825260138152602001807f43616c6c6572206973206e6f74206f776e65720000000000000000000000000081525060200191505060405180910390fd5b600060028111156106c457fe5b600060149054906101000a900460ff1660028111156106df57fe5b14610752576040517f08c379a000000000000000000000000000000000000000000000000000000000815260040180806020018281038252601a8152602001807f5468697320646576696365206973206e6f742061206c6f636b2e00000000000081525060200191505060405180910390fd5b8060018190555050565b6000600154905090565b6000809054906101000a900473ffffffffffffffffffffffffffffffffffffffff1673ffffffffffffffffffffffffffffffffffffffff163373ffffffffffffffffffffffffffffffffffffffff1614610828576040517f08c379a00000000000000000000000000000000000000000000000000000000081526004018080602001828103825260138152602001807f43616c6c6572206973206e6f74206f776e65720000000000000000000000000081525060200191505060405180910390fd5b6000600281111561083557fe5b600060149054906101000a900460ff16600281111561085057fe5b146108c3576040517f08c379a000000000000000000000000000000000000000000000000000000000815260040180806020018281038252601a8152602001807f5468697320646576696365206973206e6f742061206c6f636b2e00000000000081525060200191505060405180910390fd5b565b60008060009054906101000a900473ffffffffffffffffffffffffffffffffffffffff16905090565b60008060009054906101000a900473ffffffffffffffffffffffffffffffffffffffff1673ffffffffffffffffffffffffffffffffffffffff163373ffffffffffffffffffffffffffffffffffffffff16146109b2576040517f08c379a00000000000000000000000000000000000000000000000000000000081526004018080602001828103825260138152602001807f43616c6c6572206973206e6f74206f776e65720000000000000000000000000081525060200191505060405180910390fd5b600060028111156109bf57fe5b600060149054906101000a900460ff1660028111156109da57fe5b14610a4d576040517f08c379a000000000000000000000000000000000000000000000000000000000815260040180806020018281038252601a8152602001807f5468697320646576696365206973206e6f742061206c6f636b2e00000000000081525060200191505060405180910390fd5b9056fea265627a7a7231582002b9576cbd63cefa8bfd37c9de886779d666977f61b3270cb9d2bf9b6ad1ed9964736f6c6343000510003255736572206973207265636f676e697a65642c2062757420686173206e6f207065726d697373696f6e732e557365722068617320726561642f7772697465207065726d697373696f6e73206f6e6c792e5468697320646576696365206578697374733b20706c656173652063686f6f73652061206e6577206e616d65a265627a7a7231582001b0a21dc025e6eadc8cb6e03e44f5759412052ec4ddda38f3a43deb642a92fc64736f6c63430005100032",
  "source": "pragma solidity ^0.5.1;\n\nimport \"./Device.sol\";\nimport \"./Lock.sol\";\nimport \"./Light.sol\";\nimport \"./Thermometer.sol\";\n\ncontract Authority {\n\taddress owner;\n\n\tenum Authorization { Admin, Write, Read, None }\n\n\tstruct User {\n\t\taddress userAddr;\n\t\tAuthorization auth;\n\t\tbool isOwner;\n\t\tbool isValue;\n\t}\n\t\n\tmapping(address => User) users;\n\tmapping(string => address) devNames;\n\t\n\tstruct DeviceFrame {\n\t    Device device;\n\t    string dname;\n\t    bool isValue;\n\t}\n\t\n\tmapping(address => DeviceFrame) devices;\n\n\tconstructor() public {\n\t\towner = msg.sender;\n\t\tusers[msg.sender] = User(msg.sender, Authorization.Admin, true, true);\n\t}\n\n\tmodifier onlyAdmin() {\n\t\trequire(users[msg.sender].isValue == true && users[msg.sender].auth == Authorization.Admin, testAuth());\n\t\t_;\n\t}\n\t\n\tmodifier writeOrHigher() {\n\t    require(users[msg.sender].isValue == true && (users[msg.sender].auth == Authorization.Admin || users[msg.sender].auth == Authorization.Write), testAuth());\n\t    _;\n\t}\n\t\n\tmodifier readOrHigher() {\n\t    require(users[msg.sender].isValue == true && users[msg.sender].auth != Authorization.None, testAuth());\n\t    _;\n\t}\n\t\n\tmodifier deviceExists(string memory dname) {\n\t    require(devices[getDeviceByName(dname)].isValue == true, \"This device does not exist.\");\n        _;\n\t}\n\t\n\tfunction addDevice(string memory dname, Device.DeviceType dtype) public onlyAdmin {\n\t    //require(StringUtils.equal(dname,\"\"), \"You must provide a name for the device.\");\n\t    require(devices[getDeviceByName(dname)].isValue == false, \"This device exists; please choose a new name\");\n\t    Device newDevice;\n\t    if (dtype == Device.DeviceType.Lock) {\n\t        newDevice = new Lock();\n\t    } else if (dtype == Device.DeviceType.Light) {\n\t        newDevice = new Light();\n\t    } else if (dtype == Device.DeviceType.Thermometer) {\n\t        newDevice = new Thermometer();\n\t    }\n\t    address devAddr = newDevice.returnAddr();\n\t    devices[devAddr] = DeviceFrame(Device(newDevice), dname, true);\n\t    devices[devAddr].device.changeDeviceType(dtype);\n\t    devNames[dname] = devAddr;\n\t}\n\t\n\tfunction getDeviceByName(string memory dname) private view onlyAdmin returns(address) {\n\t    return devNames[dname];\n\t}\n\n\tfunction addUser(address newOwner) public onlyAdmin {\n\t    users[msg.sender] = User(newOwner, Authorization.Write, true, true);\n\t}\n\t\n\tfunction testAuth() public view returns(string memory) {\n\t    if (users[msg.sender].isValue == true) {\n\t        if (users[msg.sender].auth == Authorization.Admin) {\n\t            return \"User has admin access.\";\n\t        } else if (users[msg.sender].auth == Authorization.Write) {\n\t            return \"User has read/write permissions only.\";\n\t        } else if (users[msg.sender].auth == Authorization.Read) {\n\t            return \"User has read permissions only.\";\n\t        }\n\t        return \"User is recognized, but has no permissions.\";\n\t    }\n\t    return \"User is not recognized.\";\n\t}\n\t\n\tfunction deviceTypeCheck(string memory dname) public view deviceExists(dname) returns(Device.DeviceType) {\n\t    return devices[getDeviceByName(dname)].device.returnDeviceType();\n\t}\n\t\n\t//Lock functions\n\tfunction lockDoors(string memory dname) public writeOrHigher deviceExists(dname) {\n\t    devices[getDeviceByName(dname)].device.f1();\n\t}\n\tfunction unlockDoors(string memory dname) public writeOrHigher deviceExists(dname) {\n\t    devices[getDeviceByName(dname)].device.f2();\n\t}\n    function doorState(string memory dname) public view readOrHigher deviceExists(dname) returns(bool) {\n        return devices[getDeviceByName(dname)].device.fviewbool1();\n    }\n    \n    //Light functions\n    function turnOnLights(string memory dname) public writeOrHigher deviceExists(dname) {\n        devices[getDeviceByName(dname)].device.f1();\n    }\n    function turnOffLights(string memory dname) public writeOrHigher deviceExists(dname) {\n        devices[getDeviceByName(dname)].device.f2();\n    }\n    function lightState(string memory dname) public view readOrHigher deviceExists(dname) returns(bool) {\n        return devices[getDeviceByName(dname)].device.fviewbool1();\n    }\n    \n    //Thermo functions\n    function setTemperature(string memory dname, uint256 x) public writeOrHigher deviceExists(dname) {\n        devices[getDeviceByName(dname)].device.fparamint1(x);\n    }\n    function thermoState(string memory dname) public view readOrHigher deviceExists(dname) returns(uint256) {\n        return devices[getDeviceByName(dname)].device.fviewint1();\n    }\n}",
  "sourcePath": "/Users/Mateo/ethac/truffle/contracts/Authority.sol",
  "compiler": {
    "name": "solc",
    "version": "0.5.16+commit.9c3226ce.Emscripten.clang"
  },
  "schemaVersion": "3.0.23",
  "updatedAt": "2020-03-16T02:57:39.585Z",
  "networkType": "ethereum",
  "devdoc": {
    "methods": {}
  },
  "userdoc": {
    "methods": {}
  }
}